:020000020000FC
:100000000F931F932F933F934F935F935FEE509304
:100010000B01222701E0112730910901432F4F7076
:10002000402309F40DC0000F1395143009F0F4CFEC
:10003000550F2395243051F3539550930B01EACF7C
:10004000309109013F703F30D9F7812F922F5F9196
:100050004F913F912F911F910F9108958F939F93EF
:100060000F930F921F92CCDF933049F0833059F0F9
:1000700003E0809F002D090F0F5C702F0EC001E47C
:10008000080F702F0AC0903021F0913021F073E2F8
:1000900004C07AE202C070E300C01F900F900F917D
:1000A0009F918F9108950F93002700BB00E202B942
:1000B00078D0169A76D00FE0169807FDF9CF002772
:1000C00002B90FEF00BB0F91089501BB179A159865
:1000D00068D0169A66D0169864D0089501BB179818
:1000E00015985FD0169A5DD016985BD008950F933F
:1000F0000F930FE00E94DA0008E3F0DFD4DF05E0A1
:100100000E94DA0008E3EADFCEDF01E00E94DA00B5
:1001100008E3E4DFC8DF08E3E1DFC5DF08E0DEDF96
:10012000C2DF01E0DBDFBFDF06E0D8DFBCDF0FE0CE
:10013000D5DFB9DF0F910F9108950F937F938F93C0
:100140009F930E940A01072FAEDFBFDF082FABDFAE
:10015000BCDF092FA8DFB9DF9F918F917F910F91AD
:1001600008950F931F935F936F937F938F939F9344
:100170000E942201052F97DFA8DF062F94DFA5DF5D
:10018000072F91DFA2DF082F8EDF9FDF092F8BDF84
:100190009CDF9F918F917F916F915F910F911F9144
:1001A00008958F939F9384E090E10197F1F79F91D9
:1001B0008F9108950F93F5DF0A95E9F70F91089550
:1001C000203041F05F3359F031965F5F74910895AC
:1001D0007FEF0895503019F031975150F7CF4F33DA
:1001E000B9F3FF9620954F5F0F931F93EF93FF9303
:1001F00077270FE70E946601E0E0F2E00591149195
:10020000041719F4151709F47FEFFF91EF910F917F
:100210001F9108950F93772788279927043618F0A0
:1002200004567395FBCF0A3018F00A508395FBCF24
:10023000013018F001509395FBCF705D805D905DAB
:100240000F9108950F931F932F93552766277727B4
:100250008827992727E20031120720F00051120B5E
:100260005395F8CF23E0083E120720F0085E120BEA
:100270006395F8CF20E00436120720F00456120BE5
:100280007395F8CF0A3018F00A508395FBCF0130F0
:1002900018F001509395FBCF505D605D705D805DFF
:1002A000905D2F911F910F9108950F9308E00DB964
:1002B000002700939B00002700939A0001E200931F
:1002C000900001E0009391000F9108950F93009327
:1002D0009A000F9108955D274E354A595F4B4D6343
:1002E000224F144779654B155417652D3162584DCF
:1002F0001A141C4A3650675280461E241B4F364142
:10030000560A105D520B0A5B603F78403F5B432505
:10031000414E3B7A430C457C3D782E1F22254016EA
:100320005660727B201A2B2B52654937266615744E
:0A03300017550D6F3D264734604756
:00000001FF
