:020000020000FC
:020000001CC121
:080004000C94A0000C94E8002C
:100100002DD101E046D12AD108E116E1A5D10E9406
:100110008A017F3FA9F3703498F7272E1FD101E0A1
:1001200038D11CD102E216E197D10E948A017F3FAB
:10013000A9F3703498F7372E0E947F020FEFF9F77A
:1001400002E00DBB4FEF50E0E8E1F6E031972FEF12
:100150003AE004E60E94E60201D101E01AD1FED0A5
:100160007E3FB1F195D17F3FF1F17F5F371760F1AD
:10017000372F08E705D1F2D00AE302D1EFD0042FE0
:1001800037D100E2FDD0EAD009E7FAD0E7D00AE3A0
:10019000F7D0E4D0052F2CD100ECFBD0DFD00AE75C
:1001A000EFD0DCD00AE3ECD0D9D0032F21D100E28C
:1001B000E7D0D4D00AE216E14FD18BD10FE00E94F4
:1001C0004202703049F21AC004E60E94E602D0CF23
:1001D000C5D001E0DED0C2D006E416E13DD100E09A
:1001E0000E94E60229C0BAD001E0D3D0B7D00CE318
:1001F00016E132D100E00E94E6021EC0AFD001E05D
:10020000C8D0ACD00AE11BE027D108E7B9D0A6D00E
:100210000AE3B6D0A3D0042FEBD000E2B1D09ED039
:1002200009E7AED09BD00AE3ABD098D0052FE0D041
:1002300000E00E94E60200C0FFCF0027112722271E
:1002400033274427552777270FEF00BB01B9AAD0E2
:100250000FEF07B90FE000930A010AE0009369006D
:1002600001E00DBB0FEF0DB90E94D30249CF0F93F0
:100270001F932F933F934F935F935FEE50930B0128
:10028000222701E0112730910901432F4F704023AD
:1002900009F40DC0000F1395143009F0F4CF550F79
:1002A0002395243051F3539550930B01EACF3091AD
:1002B00009013F703F30D9F7812F922F5F914F9105
:1002C0003F912F911F910F9108958F939F930F93BB
:1002D0000F921F92CCDF933049F0833059F003E046
:1002E000809F002D090F0F5C702F0EC001E4080FD6
:1002F000702F0AC0903021F0913021F073E204C0D9
:100300007AE202C070E300C01F900F900F919F919E
:100310008F9108950F921F920F931F932F93112780
:10032000D4DF072F2DD01AD0733289F0705370307C
:1003300058F07A3048F42AE0129F20E0211521F489
:10034000102D170F08F0ECCF0E94EB027FEF712FFA
:100350002F911F910F910F901F9008950F930027D9
:1003600000BB00E202B985D0169A83D00FE0169840
:1003700007FDF9CF002702B90FEF00BB0F910895D9
:1003800001BB179A159875D0169A73D0169871D02C
:10039000089501BB179815986CD0169A6AD01698D4
:1003A00068D008950F930F930FE00E94420208E374
:1003B000F0DFD4DF05E00E94420208E3EADFCEDF8F
:1003C00001E00E94420208E3E4DFC8DF08E3E1DF66
:1003D000C5DF08E0DEDFC2DF01E0DBDFBFDF06E014
:1003E000D8DFBCDF0FE0D5DFB9DF0F910F910895A3
:1003F0000F937F938F939F930E948802072FAEDF06
:10040000BFDF082FABDFBCDF092FA8DFB9DF9F916B
:100410008F917F910F9108950F931F935F936F9327
:100420007F938F939F930E94A002052F97DFA8DFF1
:10043000062F94DFA5DF072F91DFA2DF082F8EDFC5
:100440009FDF092F8BDF9CDF9F918F917F916F91B1
:100450005F910F911F910895EF93FF93E02FF12F7C
:100460007DDF0591003011F08BDFFACFFF91EF9126
:1004700008958F939F9384E090E10197F1F79F9106
:100480008F9108950F93F5DF0A95E9F70F9108957D
:10049000203071F04F33A1F002E572DF5FDF31965B
:1004A0004395749100E26CDF59DF08957FEF089562
:1004B000403031F00CE464DF51DF31974A95F1CFE1
:1004C0005F33A1F304E45CDF49DFFF962095539589
:1004D000E8CF0F931F93EF93FF93772702E30E94D8
:1004E000E602E0E0F2E005911491041719F4151703
:1004F00009F47FEFFF91EF910F911F910895EF9312
:10050000FF93E0E0F2E021923082FF91EF910895B5
:100510000F93772788279927043618F00456739588
:10052000FBCF0A3018F00A508395FBCF013018F04A
:1005300001509395FBCF705D805D905D0F910895A4
:100540000F931F932F93552766277727882799277F
:1005500027E20031120720F00051120B5395F8CF1B
:1005600023E0083E120720F0085E120B6395F8CFD7
:1005700020E00436120720F00456120B7395F8CFD2
:100580000A3018F00A508395FBCF013018F0015063
:100590009395FBCF505D605D705D805D905D2F91A8
:1005A0001F910F9108950F930FEF0DB9002700933E
:1005B0009D00002700939C0009E00093900001E05B
:1005C000009391000FEF08B90F9108950F930093D6
:1005D0009C000F9108950F930FEF08B902E30E945A
:1005E0004202002708B902E30E9442020FEF08B955
:1005F00002E30E944202002708B902E30E9442027D
:100600000FEF08B902E30E944202002708B902E393
:100610000E9442020F9108950000000000000000B7
:1006200000000000000A0F1512161C1F2121282BA4
:10063000282B2B292A2620211D1B18161A151A1CB7
:100640001E1D1C222023231E1B1510131511110A19
:100650000F0D00000000000000000000000000007E
:10066000000000000A0E1216161B202123262B2B39
:100670002B2E302D2C2925211F1D1B1B1A161A1D50
:1006800020211F24242828221B1714181514110FA9
:100690000F0D080000000000000000000000000036
:1006A000000000000A0B0E1617181F222321262A0D
:1006B000282E2F2C292826211A191715181E1F201D
:1006C00022242124242827221D1A19191919170751
:1006D000080D0A00000000000000000000000000FB
:1006E0000000000000090E1112171A1D1B1D222800
:1006F0002B2C2B262726261C191517151A1B2425EB
:1007000026292824282B27252424211E1E1A160CCE
:100710000B090000000000000000000000000000C5
:10072000000000000000080C1015181917181F23EE
:100730002529292928282317191B151A1D1E1F24AE
:100740002A2A2C2C2F302B28282423211E1C130E60
:100750000B0B08090009000A00000000000000005F
:1007600000000000000909090B0E131913131B1FC9
:100770002929242925242017191D20251C1F24245C
:10078000252C282D2F35332F2F2A262220201713F2
:100790001B100D0C070D0A0F0000000000000000E8
:1007A000000000000A0D0D0E060B1215101020217E
:1007B0002328221D211C20171B1F25262C2722251C
:1007C000292F2A2F33383734332B262723251C1B78
:1007D0001B110C080B0E0A110000000000000000A5
:1007E000000000090D0D10121213161616191E2105
:1007F00022231F1B1E19191B1F2224272C272A2CDA
:100800002E2F2F2F2F393737342F2827262520201A
:100810002016141410100E1100000000000000003B
:1008200000000000080D0B101110151111141C1CF4
:100830001F201C18191A1D1E212429292D2C2E2F8A
:1008400033343434343B3B3A38302B2B2B2925249A
:1008500025191717151415140000000000000000DA
:1008600000000000000A07100D0E130B0E13181ADB
:100870001A171C19181C1F202025272D2F312E2F49
:1008800034383535393B383835302C2F2F2C2A2742
:10089000251E1E1818161612000000000000000089
:1008A00000000000000000060B09090B11111415CF
:1008B0001A1C1C181D1D21252323282E2F322F2FF3
:1008C000343B3936383D3E3939353033332F2D23DB
:1008D0002123211C181D1D1800000000000000002D
:1008E000000000000000000006070B0D1213141595
:1008F00019191B1B1C1D21252525292B30343434A7
:10090000383B39373B40403E3E3A3833312D29267B
:100910002323211E1E1E1D1C0000000000000000DD
:1009200000000000000000000000060A101314126E
:1009300015181816191C1C202728282A2E30333386
:1009400035363636363B3F3E39373636312F2D2356
:10095000212121201F1B17130000000000000000B0
:10096000000000000000000000090B0E1010111321
:1009700015171615191C1C202526282A2D30332F53
:100980002F34352F33383B3C34323336352A271E4B
:100990001C1B171C1B191311000000000000000095
:1009A00000000000000000000000090E0E0F0F0DF7
:1009B000111714191C1C181D222227262B2F2A2B35
:1009C0002A332E2E2E353935332D3336342F261932
:1009D000191B17130F0E0E0F00000000000000007F
:1009E00000000000000000000000090C0C0C0E0CC0
:1009F00011101418121518191F202324272E292826
:100A00002E3332302C3339332F2D2D292F2C27170D
:100A100017140F130D0D090D000000000000000059
:100A200000000000000000000000060A0F10101077
:100A30001013131011121316191D2021252525241A
:100A40002C31322F2C2E39302C2D29262A2A2726DC
:100A5000170F0D0F0908000800000000000000003B
:100A6000000600000000000000070B111114140F15
:100A70000D15150D10131315171C1C1F24202526EA
:100A8000282C2E2F2A293630302A252524242425C7
:100A90001716150F0C0800000000000000000000F1
:100AA000070B08000000000000080C0C1112140FC6
:100AB0000815111014140F0F17181D1F21232523BB
:100AC0002428262A2725312E2C272121201D211FCD
:100AD00017151212090000000000000000000008B5
:100AE0000C0E0B0600000000000A0E0E1415161165
:100AF0000D191815140D100C1B1C1C1E1D1B202479
:100B0000262723231F21212B2A2A2A281F1A171CB4
:100B100016110D0C0800000000000000000000008D
:100B200007100B0600000A090A0C0C11151A1B16F7
:100B300019191815121213141718171C14161B2242
:100B4000222420201E1C1B1919162A261C1A1714D1
:100B50000F0E090A00000000000000000000000A5B
:100B60000C100C09000A0B0C0E1112161B1B1E1B7D
:100B700019191818151314121715131112131A1F17
:100B80001F22201F1F1C1A191614182622131311B6
:100B90000C0C0A00000000000000000000000A0D1C
:100BA0000E120D0C090A0D0D101114171A1D1E1B23
:100BB0001A15130F100D1211160B0E0E0E10181C15
:100BC000222222211C171714151414192013101097
:100BD0000B0800000000000000000000000A0B0FDE
:100BE0000F120D0B0A0B0D0B121216181D222222CA
:100BF0001A1A161211100F15150A0B0A0D111418D6
:100C00001B201B1D1717171412131416150C0F0C8D
:100C10000A0000000000000000000007090C0D0E93
:100C2000121712110A0F100D1417171A2023231E62
:100C30001D190B0C0E0D0D13100B060A0D0D1516BC
:100C40001B1D1C1D17131714140C1114110D0D0866
:100C500000000000000000000000080B0D0E0E1444
:100C6000151A17150D1515100D11171C1C20232210
:100C70001D0D0D090E0D0C0B0C0B0B0B0B0F141493
:100C80001A191B1A191917140F0C0C100D0D0C0C36
:100C90000A000000000000000000000810131316F6
:100CA000161B121611131514141119191D232422C1
:100CB0001D0F12090B0C0C0B0C080A09070B14185A
:100CC000191916121918140E0A080C0B0C070C0827
:100CD00000000000000000000000080C15151716A9
:100CE0001E1D16181412151314151521222425265D
:100CF0002114130D0D0C07120C0C0D1013161617E2
:100D00001815131217151413100F090807000800FF
:100D1000000000000000000000080C0D1617171B53
:100D20001E1F1B18131217151919191C2224272707
:100D3000271815100E0A1614110D0D0B1114141688
:100D4000141514151514130F0B0C090000000000E6
:100D500000000000000000000D0D121015151E1EF1
:100D60002222221D1C1B181A1A181A1F2224272996
:100D7000261C1B1818181B1B19180B0F0F110F100E
:100D800013141116151413110F0C090000000000A4
:100D90000000000000000000090E1313161A1E23A5
:100DA00025221F201F1B1D1C1A171C2422262B2A3C
:100DB000231C1F1C171B1B1B1A190E0F0C0C0E0BD0
:100DC00010101115110D11110C070000000000008A
:100DD00000000000000000001113181B171C212642
:100DE00026272321241D1F1C1A1D1F24272D2E29D1
:100DF00024201F1E221C191A161211140C080B0E87
:100E0000100B1313120B0C0D0C090A00000000004C
:100E100000000000000000001217191E1E222527E6
:100E20002D2A27252421201C1B1F1F24292C2F2E6F
:100E300029272422221F1C1C181514140F0C0B0C1C
:100E40000B0F1011100E0D0B0C0C0C090000000004
:100E50000000000000000000191A1E202221242892
:100E60002D2E2A2524231E1E1B181C2A2C2C2E2B2B
:100E70002828261D1A1718191715110F0E0D0B0CFF
:100E80000D0E0B100E0D0906080B070000000000E8
:100E900000000000000000001F20241F2327262937
:100EA0002E302E2A282322211C1A1922272B2E29E4
:100EB0002723231D1918181512100E0A0D090608EC
:100EC0000D0B0E0F0A0A0E0B0709000000000000B0
:100ED00000000000000000002022262727272B2DDD
:100EE0002E332F2D2A2724221F1B161F27282C2B99
:100EF0002B201B1A19151715100D0A0709000000E1
:100F000009060B0F0F0E0E0C0C080000000000006D
:100F10000000000000000000181B1F222226282AC3
:100F20002B302C292623221D1F1B1D1F1F23282B7E
:100F300029291817161110141414110C0C0800008C
:100F40000000080C0B0A0D0A080000000000000059
:100F5000000000000000000016191B212124282792
:100F6000303029242321211C1C161B191A1F272766
:100F700023201617170D0911111011080A0000007F
:100F80000000000A060A0B0B080000000000000029
:100F900000000000000000001414191C1E22242A66
:100FA0002A2F241F1E1D211F1E1B1B1A191D232241
:100FB0001F1F14110D0C0711110E0F0D0900000059
:100FC0000000000000000A0B080000000000000004
:100FD0000000000000000000121417212121232826
:100FE0002A2A1F1B1814111E1E191915171C20213F
:100FF0001A1F1E0F0D0A11110F0C080A0000000025
:10100000000000000000000A0000000000000000D6
:1010100000000000000000001516191D1E1E2126EC
:101020002A272217171413121B17161616191B1628
:10103000121D1E0F0D090D0D0D0D0B0800000000F7
:1010400000000000000000000000000000000000A0
:1010500000000000000000001011151B1A1E1E29C0
:10106000292222141414101116121616111919150A
:10107000110E1C0D0C0A0D0C0B09070000000000DE
:101080000000000000000000000000000000000060
:1010900000000000000000000A0D1419171C1D2498
:1010A000241D191811130F0F0D0D110C101216130A
:1010B0000F0C0C0809090C090B08000000000000C7
:1010C0000000000000000000000000000000000020
:1010D00000000000000000000F11161819191C1C58
:1010E0001F1A1817100D0C0A0B0C0C0B0D11120DFA
:1010F000080A0800000008000800000000000000C6
:1011000000000000000000000000000000000000DF
:101110000000000000000000070C121519191C1730
:10112000181A151410090700090C0D060B110D0BE8
:1011300007000000000000000000000000000000A8
:10114000000000000000000000000000000000009F
:1011500000000000000000000C0D0E1519141C14F6
:10116000151A17100E0B0900000A0D0D0E0E0908B6
:10117000000000000000000000000000000000006F
:10118000000000000000000000000000000000005F
:101190000000000000000000080C1617181A1C14AC
:1011A000101513120D090000000009080A0B0700B2
:1011B000000000000000000000000000000000002F
:1011C000000000000000000000000000000000001F
:1011D00000000000000000000B0D10130E12170D90
:1011E000121211100C0B0A000000080B0C07000073
:1011F00000000000000000000000000000000000EF
:1012000000000000000000000000000000000000DE
:101210000000000000000000000A0D100C0F0A0B77
:101220000D0F0A0B0B09000000090A0F0C07000044
:1012300000000000000000000000000000000000AE
:10124000000000000000000000000000000000009E
:1012500000000000000000000000080F070B060A55
:10126000080D0B070B0B0A0A0A0B0F0F0A080000E8
:10127000000000000000000000000000000000006E
:10128000000000000000000000000000000000005E
:10129000000000000000000000000A0D090B06001D
:1012A000000A0B0A0B0E0E0D0A0C1113120C090981
:1012B000000000000000000000000000000000002E
:1012C000000000000000000000000000000000001E
:1012D000000000000000000000000A0B08060000EB
:1012E0000000080009060F1010101415120F0D0B46
:1012F00009000800000000000000000000000000DD
:1013000000000000000000000000000000000000DD
:1013100000000000000000000000000A00000000C3
:1013200000000000080B0F111315171814111411E9
:101330000C070B0800000600000000000000000081
:10134000000000000000000000000000000000009D
:10135000000000000000000000000000000000008D
:101360000000000A0C0D0F11151619181616191584
:10137000100E0B09000A0B0800000000000000001E
:10138000000000000000000000000000000000005D
:101390000000000000000000000000000000000647
:1013A000000A000A0D0F101316191A1C17131A162B
:1013B0001211110E0A0F0B080600000000000000B9
:1013C000000000000000000000000000000000001D
:1013D0000000000000000000000000000000080BFA
:1013E000060B090D0F131416181C1E21201D1B1BA4
:1013F00017080F13110F0E0E0B060000000000005F
:1014000000000000000000000000000000000000DC
:101410000000000000000000000000000000070CB9
:10142000090D1112131327272A2B212225201C18FE
:10143000110C0815141211110B0900000000000016
:10144000000000000000000000000000000000009C
:1014500000000000000000000000000000090D0F67
:101460000F10121115151527292B202529281C17B7
:10147000121B18191813110F0B06000000000000B2
:10148000000000000000000000000000000000005C
:1014900000000000000000000000000000000A0B37
:1014A0001011170D11151A1C242C2C2A2924211C6B
:1014B000191D1A1A17141110100A09000000000053
:1014C000000000000000000000000000000000001C
:1014D0000000000000000000000909070A070D10C5
:1014E00014151A1E1C1F1E21272D2C2C2C29281FD9
:1014F0001C1F1A19191512120C0F0E0700000000FC
:1015000000000000000000000000000000000000DB
:101510000000000000000000090C0C0C0C0C101264
:1015200015161D201F2422252A2E31302C2523217B
:1015300024211D181716121211110C0C080000009E
:10154000000000000000000000000000000000009B
:1015500000000000000000000B0B070A0A080A0E3A
:1015600012171C202426282A2C2D31312C28252521
:101570002423221E1A19171514140F0E0C0900002B
:10158000000000000000000000000000000000005B
:1015900000000000000000000007000000070C0F22
:1015A00011151A1B252622272A2D302C2824242108
:1015B000221E1D1A1714161313120E0A080000001B
:1015C000000000000000000000000000000000001B
:1015D00000000000000000000000000000000A0CF5
:1015E0000D1316181D1F22262327282A27211E1F08
:1015F0001C181A1A151414131312100F0C080000DB
:1016000000000000000000000000000000000000DA
:101610000000000000000000494E50555420583A88
:101620000000494E50555420593A534541524348C1
:10163000494E4700464F554E442020004E4F5420FF
:0C164000464F554E440041424F525400AA
:00000001FF
