:020000020000FC
:0200000004C139
:080004000C9401010C940301AE
:100100000EE515E16DD10FEF0030F1F74FEF50E044
:10011000EEE5F5E031972FEF3AE004E60E94AA02FF
:10012000E1D001E0FAD0DED07E3FB1F175D17F3F62
:10013000F1F17F5F371760F1372F08E7E5D0D2D0B4
:100140000AE3E2D0CFD0042F17D100E2DDD0CAD02D
:1001500009E7DAD0C7D00AE3D7D0C4D0052F0CD135
:1001600000ECDBD0BFD00AE7CFD0BCD00AE3CCD0C4
:10017000B9D0032F01D100E2C7D0B4D00AE615E10F
:100180002FD16BD10FE00E940602703049F21AC0E5
:1001900004E60E94AA02D0CFA5D001E0BED0A2D032
:1001A00006E815E11DD100E00E94AA0229C09AD0FC
:1001B00001E0B3D097D00CE715E112D100E00E9426
:1001C000AA021EC08FD001E0A8D08CD00AEB1AE0A2
:1001D00007D108E799D086D00AE396D083D0042FC0
:1001E000CBD000E291D07ED009E78ED07BD00AE35D
:1001F0008BD078D0052FC0D000E00E94AA0200C0AA
:10020000FFCF002718957EEF18950027112722278A
:1002100033274427552777270FEF00BB01B986D036
:100220000FEF07B90FE000930A010AE0009369009D
:1002300003E00DBB0FEF0DB90E94970261CF0F9342
:100240001F932F933F934F935F935FEE50930B0158
:10025000222701E0112730910901432F4F704023DD
:1002600009F40DC0000F1395143009F0F4CF550FA9
:100270002395243051F3539550930B01EACF3091DD
:1002800009013F703F30D9F7812F922F5F914F9135
:100290003F912F911F910F9108958F939F930F93EB
:1002A0000F921F92CCDF933049F0833059F003E076
:1002B000809F002D090F0F5C702F0EC001E4080F06
:1002C000702F0AC0903021F0913021F073E204C009
:1002D0007AE202C070E300C01F900F900F919F91CF
:1002E0008F9108950F93002700BB00E202B985D0DB
:1002F000169A83D00FE0169807FDF9CF002702B9B0
:100300000FEF00BB0F91089501BB179A159875D098
:10031000169A73D0169871D0089501BB1798159846
:100320006CD0169A6AD0169868D008950F930F93E0
:100330000FE00E94060208E3F0DFD4DF05E00E9430
:10034000060208E3EADFCEDF01E00E94060208E3CE
:10035000E4DFC8DF08E3E1DFC5DF08E0DEDFC2DF9E
:1003600001E0DBDFBFDF06E0D8DFBCDF0FE0D5DF79
:10037000B9DF0F910F9108950F937F938F939F9300
:100380000E944C02072FAEDFBFDF082FABDFBCDFC0
:10039000092FA8DFB9DF9F918F917F910F91089569
:1003A0000F931F935F936F937F938F939F930E94FD
:1003B0006402052F97DFA8DF062F94DFA5DF072F44
:1003C00091DFA2DF082F8EDF9FDF092F8BDF9CDFFD
:1003D0009F918F917F916F915F910F911F910895E0
:1003E000EF93FF93E02FF12F7DDF0591003011F0A7
:1003F0008BDFFACFFF91EF9108958F939F9384E065
:1004000090E10197F1F79F918F9108950F93F5DF98
:100410000A95E9F70F910895203071F04F33A1F05C
:1004200002E572DF5FDF31964395749100E26CDF85
:1004300059DF08957FEF0895403031F00CE464DF18
:1004400051DF31974A95F1CF5F33A1F304E45CDFCC
:1004500049DFFF9620955395E8CF0F931F93EF93B5
:10046000FF93772702E30E94AA02E0E0F2E0059101
:100470001491041719F4151709F47FEFFF91EF9108
:100480000F911F910895EF93FF93E0E0F2E0019345
:100490001083FF91EF9108950F937727882799276D
:1004A000043618F004567395FBCF0A3018F00A5042
:1004B0008395FBCF013018F001509395FBCF705D11
:1004C000805D905D0F9108950F931F932F93552793
:1004D000662777278827992727E20031120720F01F
:1004E0000051120B5395F8CF23E0083E120720F07D
:1004F000085E120B6395F8CF20E00436120720F057
:100500000456120B7395F8CF0A3018F00A508395F1
:10051000FBCF013018F001509395FBCF505D605D2B
:10052000705D805D905D2F911F910F9108950F93E5
:100530000FEF0DB9002700939D00002700939C004A
:1005400009E00093900001E0009391000FEF08B9DB
:100550000F9108950F9300939C000F9108953A5BBB
:100560000E631063503A6C2B38125D42341C7322B8
:100570006F141E2A385D780B4A3C2561784110249F
:100580006C39312A7E6F3C75402C29733A44664E93
:100590002316587D737214733F1F35586D193F0D24
:1005A0003C7D6871312F591E211C1E4C0A44462285
:1005B00031455F51595B72484C50480A7169137D4F
:1005C0006E8019721C36807D5B7013116A1E422387
:1005D0007558110E671A57343476185D601A450B3A
:1005E0003E2A4C38254D7168684E3A1A5D56385D82
:1005F0005413212669312719663D2D445E1C635A28
:1006000056753E112F604B6E3E6C57410F3A3C6A57
:100610004B3E747C13182D1D6A6D460C657E775C0D
:100620001035203A7D26510F5640123660765C61B7
:100630001B205E4938234944500C6264725248457D
:10064000296B5C49663F3E79453318704C0E554620
:100650001C254427325D722A4D4237323E5F763088
:1006600067131F12751E463A2655325B62271548DE
:100670004C694B5C75733451270B783E59457E713C
:10068000805D395E20675312695B2663606D1E16BC
:100690007E0C567A50172D2C36452340221F0D62B2
:1006A0006148286A3A483A443B7E2F1F776F2436C8
:1006B0004B7F581A212D2F2441700B6F7947407DB5
:1006C0007262564770352B7D301D4C1A56280B3BF5
:1006D000397217337D26591E255C43446F6A3A5898
:1006E0000D0D2611701D1A18684E753E3879577F0A
:1006F00045254779607B263C433C45167A121A1CF7
:100700004371677927495A22696B582E354E6B6EB3
:10071000691C326F533B173266217D4A1410421414
:100720006B6C574F6D0C7B0C20431B145357684068
:10073000436A607F165C251B422639774B590B1D97
:10074000381F111B4D0A265E32642E163C694D116E
:100750004065560E4A686F1B68773E613E381F0C35
:100760007F76731F29317B57800F805A4A3E5E2E59
:1007700047645D6247392A2C546E0C0A3531641D7A
:10078000732C1B5713461341217B303F4F144313E7
:10079000764C2846734C1D7C66394B543E732A6C4C
:1007A0003329497F591B6C3A60120D7F423A6C42E3
:1007B0003E6B4C0C315F1D2B7C393878806378326E
:1007C0002B753A7554252D6042230E4346487835E3
:1007D0004A4C4512173565742A4655357C35441800
:1007E0003C3B6356595C491F3A594077126C373984
:1007F00079155A740C3B3D344E74216A482E246B93
:100800006E14613826661D1978415F665C76526405
:100810007D3F177860423C66267E196C5D1A481849
:100820002550525078513B567B6462461C0F46421D
:10083000746C5D5B1B132C2863290A197C1F487A92
:1008400050747B395F7411155D553F5B232477111C
:100850003E480B4E7217620A44527B0D4B5D720C80
:10086000553E5B336D3714371139522734453A7B87
:100870007D253D6A500A59320F756545715E557682
:10088000773E43446A78361B7F1F632E464B3E55A6
:10089000650F40241028601E43597E236B70440E60
:1008A0005D3A436E7F6776616F6C383158542C6ABD
:1008B0003A2E486B3131286A65300F267A568057B8
:1008C000295768573D6C2B0A4B280D153B253F6572
:1008D00038457C750A3F54724A3729396B52737810
:1008E0002872707447147D270E6F0E15267A5C16D9
:1008F0007A55122E4115496254303A55487F530BB0
:10090000507F1836282E6F2970733C107D3448387C
:10091000721055421F7E5833667767212A19257059
:10092000771768697F5A1E39181A3C5C22371D54A4
:1009300078625B4A2E614365584E3F7A58331010F7
:100940005017353E572E3E11794A244E4576696739
:100950003C675D3155396B7E15527A117974345C80
:100960002715143925226C75302F2D170C747472CD
:10097000396B7D0C4C2D7B195F2D1B6C76572B45ED
:10098000236A384318517D6D79707B68452A495632
:100990005737180F2E3A703C542E2A5A30311369AB
:1009A0006465680D19553A55203D1D8013257B1649
:1009B000572F3449603C521A452B7E40507B2415FA
:1009C000652D6F7A0F0B5B6C0E776A114478157882
:1009D0006C6D2917283B6C2368532F4D0D582A74D2
:1009E00048175D742A1854535B622B556B482A15BF
:1009F00034210C2A514A4A0F35741961743F673B00
:100A00007F460A662B495E4C1E466D2F277F102AB3
:100A10000A5F7E6527597B0F6D50614B1B3D7977CF
:100A2000746B1032420C6514183545383E5F3C49F2
:100A300014511F0F47297743793A312729322B78F0
:100A40004D671D28773C1841463A795A4428161CB0
:100A50001B7B0C1E466F8022743B6459183B581553
:100A6000487618431551744458371E59754D115C1A
:100A7000376F7E533A512E203F58370C1854647606
:100A800072583368593551743E3417190F807158B4
:100A90006E553577272173356F4168686D7F552016
:100AA0005D367A6F7E0E0B35751378385E6D727C0D
:100AB0008058506F71286830255227200A3A263D09
:100AC000253226576F1F665A2B362D1166434F0D60
:100AD000174C5C5E530C1F590D27447A202A645F23
:100AE0004D7C72451F391B3D3F4B5D2E375D1025F8
:100AF00043787A7B3D4D2C2C25535E6925737F3DD1
:100B000014122D77423333353575242D1040526839
:100B10001870191440184A0D777F1756331B421668
:100B20007B0E5A3242694A29783A425B500A4B7B23
:100B3000301C432F8041763D4B2356262C6A0E4AAB
:100B40001069805918775D4147203E4D3448732421
:100B5000497B2C6C4E1B3749107E7A6F1F1E773FE6
:100B60003D697C65162371136D1D5E1437311315B5
:100B7000491B193D3957127724745E2A4D321234BD
:100B80002E5A40655B17571469716D6F3C0D0B3918
:100B9000142963696B267A757D332E78203D492EA2
:100BA00046456675194D63266C6B6D6434665F3C13
:100BB0000F4C1449484130176C3E21196D212758BC
:100BC000266D132C774D7D4B257146452E2E2355D2
:100BD0007E2D53435E74195A304E254041460B67B3
:100BE0002F1B26515B795D27481B1C4854321B5034
:100BF0002C80687448333965160E5A687469574EEC
:100C0000130A372A383E496868623A6F64535C2B8E
:100C10004D654F4B63423733292A7338780D194895
:100C20003C2652201C53756A1E0E376B5D6D0E4AB2
:100C30007E6E32544F105D0B2A2E6731285C6F1B7D
:100C400071101557792C5B74287B3C4E775F0E2D05
:100C50005820592913554C242B717C2B6D1E450DA2
:100C60007D5D126F417D110A69160D611A334F398E
:100C70007A386367107D6A25357D5841612F286376
:100C800036572F484A7A5436516C107C23320D4D1A
:100C9000237B5B7F276E3B0C5B184460203B2B3F24
:100CA000737150125B73754044133A383C467C7B39
:100CB0007C1C360D515E665D3F23807E0F100F0A4F
:100CC0003B1C7F32413C406354300F0D362D403D7C
:100CD00013722B3B433517746C6D521654112A60F6
:100CE0002452405D3E2934593334155E66294A3812
:100CF0007621347B7D427E45163D1B260A7A752877
:100D00005117195D4075733A3429577D11741A7063
:100D10007F213A513959751B392D59353E3B0C13FA
:100D200074554054221E4C3D5A73112B6A4F360E97
:100D300027566D706C7377100E46523A37137270E7
:100D40003D127B393F1B5E0D17732C5B1053400B1C
:100D500027375972677A2A243D23557D282C307411
:100D600016135C146C6B224419625B2173195C6866
:100D70001F2E3E0C3A0F39224968413D1D427C7DB1
:100D80007E80204E4E5D167F2A1621767B28791AAA
:100D90007D3E2F772C1B313165421E2A58363F206D
:100DA0001848521A55680D47676E107161545217F2
:100DB0000C3E0E542F3F22637C7E681A43162D1E74
:100DC000296329746A1F29686E0A4D6B332E600FE0
:100DD0007A6A63180F327714450D7E696061544654
:100DE00037373978722F7F4F2D545F1648383F7050
:100DF000114B533D171B4A6434111515621467508B
:100E0000337D22527E1267236917533E31555E634C
:100E1000553434583E782E1C421C3F683D2C5C31C2
:100E20007766497F140A6D715266441E436F3250D3
:100E3000567D31340B7C3F2F2655343D2864773B5B
:100E40003878295E3372757224206433191E366532
:100E5000173A356D655B6B1D704F7D71651B4237B1
:100E6000234E0B5624463A48630C1F435A5E1166C4
:100E7000684511212469807C1E6B1242433D655DEB
:100E800037390E7F23375E686575682035353B5FDF
:100E90003E482C465B37402A6E693D270F214F257F
:100EA0007B6B490E7D0F7B4D2262366B542A674D5A
:100EB000193F644A0F601F133A175436534741498C
:100EC000167C2C0B51255A586E1D5C5F6C1D4E0D07
:100ED000384D47604F5375482150802B0B6E355964
:100EE0001B2763562D7B311D145234436C674067BA
:100EF0002E5E233262782B49660B0E6D525C6A506F
:100F00003C392E2251775E0C5A71662267792C4A41
:100F10005F3C217F6F5E12285C20147B80274F7C12
:100F2000587E2C187117352462332D2B5B14723FB9
:100F30000B3F546A75196B58271F545032696F5D07
:100F4000687C6B74167A211777121E3952612761FB
:100F50004566803957782E1F4540721D351B2A453E
:100F6000584C36596E6D7E3B5F2E725146334B188E
:100F70007519316A727A357B724C72603C201F5A47
:100F8000603C155E4E3650692464347B6E64632D7C
:100F90003B6418134858386D1C722F0D6A2924328F
:100FA000397D0C3361226C0A6824671F7B0C122B7D
:100FB0004D407D1338112354196F4A4C2335321A92
:100FC00046741B17275F462C537D780F490A276FFD
:100FD000666B1F3D24642A67475057121D3D7C599C
:100FE0006B70151A347F0F4A53696E0D3537245EC6
:100FF0006D5727683B6A4F3379296E4F65493D6EBF
:10100000356C647B40791D1C5F630C240D36210D0B
:101010005F2E787C336A1E154D69523E32583E73FE
:101020005E723516583D2E1E155F193A595B427592
:10103000394E5D0D397232645B1175211762733E52
:101040002B6E464145271A7730372E63446A537C0E
:10105000663D4E496B743A231E0C7B52300A7A511E
:101060007B5F4C5E77174630593B3C1E38567761A4
:1010700016674D4F3D491B371C6C6E575E62294603
:101080005F362F505F5B306F364F701A594F806755
:101090004D520D3F5A366E6C7B6A5B7E534F6542F4
:1010A0000D677E776D6E1E142E0F56305246333DFF
:1010B00074314F3A7B50491E2E697A514771104165
:1010C0004614433521325C795E37285432563C52FF
:1010D0000A366D134B56310B1B2A677E0C197D6E39
:1010E0007A543A4E30297B306741766C5F60257BBD
:1010F0004E662F641C253E74564E5D43797D142D3B
:101100005F20636780337E360C2253462B1F655168
:101110007D7C2D467578492A3F80334455336D26B2
:10112000157718116E3E49352C0A227C344B332F2B
:101130002128556E65667F3B5977256C6D391150B6
:101140006A44570A402E783B272A1C1E6E3D396799
:101150002C377F156E6B1F576F170B667019371A78
:1011600046580F3A3E5E5F438042631B1826154087
:10117000360D1A2D2E55787E30207A7539747A54B2
:101180001153407A450C355D554C2E24770E7E7FE9
:101190006245334B3C0D401C4A5259465E3F6075D8
:1011A000526F5E4666115A1C4A277B6944251F23ED
:1011B0001D704F396F67625D486B191A42797A5119
:1011C000625F45334D5D505337280B14703B793FB8
:1011D000714041441F3D5521610E123E3470527BD7
:1011E0001125556D5874784A39475F2110127515CD
:1011F0003F554D3A4A636672730C6A3752647148C0
:10120000202D6C0B7F46510C1D4B1A49321518547A
:101210004663352A1321781E1F51684776404B429A
:101220004F48207F63717377291C736A45751D23AE
:1012300077760A5A1F0B5140546D743A1E1254109F
:10124000547233662E390E6E3917185662796370F0
:10125000405363601D76735638117E2072547511A9
:1012600052726D4E315B0A683B436C7531630B22E1
:101270001427693D117F141A393E7E3F1D14174F04
:101280004B7F1065661E36734F437344400B4634E4
:101290007034481B353A0F644E2C787E6E1B7F737A
:1012A00042294927264D5A5F0A60105F39432B7E39
:1012B000142B3D3144791E1C2D76486B18807A0E14
:1012C00056761E4F10614913422F172E295F6B2F40
:1012D0000C537B3A5D6E4268795D4B200A271E579E
:1012E00015232C1273545117190D64621B193C21DC
:1012F000591A23723350512B59676C6C3D6E0C6335
:101300002C780A800E5F8055804C8054633F554393
:101310003B786B3F265578173C32640D481A585875
:10132000556E452F453149266E132B233C69616765
:10133000644913651D3D47614B263D476C1161575C
:101340004127176B2410420A2A1F4B623A4F6579D6
:10135000351111354E645A73271647777A1D5B692C
:10136000742B776D25207B135A15333C3C550A624C
:101370004F665A181F3D7D2055192A41691923755A
:10138000540A4240123F2D2F0F0C3B1071426956F8
:1013900039403D61170B1A751576505014142C7D89
:1013A00061191C2F6B4A1B381F3949441675445D5F
:1013B00051606E7C754075127F7D7A114E59505C7C
:1013C0005F27335A5A60800B385E1D0F56132B115E
:1013D000774D6F584037196265603E6E562B1F1768
:1013E00072203270271D300A1256257780801F63C5
:1013F0007E2A221E6F3F1673741474792B54113495
:10140000494E2A721C5112121B63577F4F184A1003
:101410006530147026613C347966584178267049ED
:10142000470E7A5448185B5613203A490F481F2834
:1014300030423C660F67497574365D430A0A747E14
:101440005124447142644C334D436C385F563F2500
:1014500019386166532D2C55357E0C26386D593E52
:101460003821292356634C383B0E57273D5C550ED7
:101470002F5137666B0E283047124E48386942416B
:1014800074175F155359317C5B5A226F47412B6F9C
:101490003F3B76724A651A0A665E265C2869787F49
:1014A000635E541F600A2F1D4C6F1E38700A5F2147
:1014B00021241E19541B601E2B49406514365647C3
:1014C0000F34773B6860625D0F5F2A4D240E5563D1
:1014D000295925512E7512147F1F73567725586888
:1014E0003A663B801F633D4E3B1C71636232396735
:1014F0007113120A4B56430A363D56436C63391238
:101500007A6B647A560D616132693854543E3B15EA
:10151000177D1D280C680E0E161A526F353A6D1382
:101520000E286F4D29124611456E0C451862301E6B
:101530006F0F11684E59363E73564A692C18152B99
:10154000742B2B2C763D7F1930256B44252E2F22B2
:101550004F3059343057551D2E4D7A143731496E5E
:1015600070757420582C593A000053454152434835
:10157000494E4700464F554E442020004E4F5420C0
:0C158000464F554E440041424F5254006B
:00000001FF
